:020000040800F2
:10000000000C0020FD140008650F0008690F0008AF
:1000100000000000000000000000000000000000E0
:100020000000000000000000000000006D0F00084C
:100030000000000000000000710F0008750F0008AC
:100040000000000000000000000000004D15000846
:100050004D1500084D1500084D1500084D150008F8
:100060000000000000000000000000000000000090
:100070004D1500084D1500084D1500080000000042
:10008000000000004D150008000000000000000006
:10009000000000004D150008000000004D1500088C
:1000A000000000004D150008000000004D1500087C
:1000B0000000000000000000000000000000000040
:1000C000002243088B4274D303098B425FD3030A97
:1000D0008B4244D3030B8B4228D3030C8B420DD3AA
:1000E000FF22090212BA030C8B4202D31212090238
:1000F00065D0030B8B4219D300E0090AC30B8B4276
:1001000001D3CB03C01A5241830B8B4201D38B0323
:10011000C01A5241430B8B4201D34B03C01A5241C8
:10012000030B8B4201D30B03C01A5241C30A8B420B
:1001300001D3CB02C01A5241830A8B4201D38B02F6
:10014000C01A5241430A8B4201D34B02C01A52419A
:10015000030A8B4201D30B02C01A5241CDD2C3090C
:100160008B4201D3CB01C01A524183098B4201D388
:100170008B01C01A524143098B4201D34B01C01A73
:10018000524103098B4201D30B01C01A5241C308EB
:100190008B4201D3CB00C01A524183088B4201D35A
:1001A0008B00C01A524143088B4201D34B00C01A46
:1001B0005241411A00D20146524110467047FFE7B2
:1001C00001B5002000F006F802BDC0460029F7D0B6
:1001D00076E770477047C0460448054B10B5834228
:1001E00003D0044B002B00D0984710BD3C000020EA
:1001F0003C0000200000000006480749091A8B1047
:10020000C90FC91810B5491003D0044B002B00D0FA
:10021000984710BD3C0000203C000020000000007A
:1002200010B5074C2378002B09D1FFF7D5FF054BFC
:10023000002B02D0044800E000BF0123237010BD52
:100240003C0000200000000050150008054B10B5D0
:10025000002B03D00449054800E000BFFFF7CCFFA6
:1002600010BDC046000000004000002050150008EE
:1002700070B500260C4C0D4D641BA410A64209D18C
:10028000002601F065F90A4C0A4D641BA410A64231
:1002900005D170BDB300EB5898470136EEE7B300C7
:1002A000EB5898470136F2E78815000888150008D2
:1002B0008C150008881500080749084A4B68126821
:1002C0001B0C1B04134380229201134380224B60BA
:1002D000034B12059A60704700100240040FFF1F85
:1002E00000ED00E070B5A024E4055E4D2021200063
:1002F00000F0EAFF2800012100F0E6FF8021200045
:1003000000F0E2FF4021200000F0DEFF022120008B
:1003100000F0DAFF544B188800F0C8FE402120009E
:1003200000F0D4FF2021200000F0D0FF28000121A0
:1003300000F0CCFF8021200000F0C8FF0221200047
:1003400000F0C4FF494E307800F0B0FE20212000BC
:1003500000F0BAFF2800012100F0B6FF8021200044
:1003600000F0B2FF4021200000F0AEFF022120008B
:1003700000F0AAFF307800F099FE4021200000F044
:10038000A5FF2021200000F0A1FF2800012100F09E
:100390009DFF8021200000F099FF0221200000F045
:1003A00095FF307800F082FE2021200000F08CFFC5
:1003B0002800012100F088FF8021200000F084FF48
:1003C0004021200000F080FF0221200000F07CFF8F
:1003D000307800F06BFE4021200000F077FF2021F4
:1003E000200000F073FF2800012100F06FFF802142
:1003F000200000F06BFF0221200000F067FF307842
:1004000000F054FE2021200000F05EFF28000121B2
:1004100000F05AFF8021200000F056FF402120000C
:1004200000F052FF0221200000F04EFF307800F073
:100430003DFE4021200000F049FF2021200000F077
:1004400045FF2800012100F041FF8021200000F03D
:100450003DFF0221200000F039FF307800F026FE39
:1004600070BDC04600140050300000202C00002059
:1004700070B5A024E4058021200000F025FF1C4D6C
:100480001C4E287800F012FE8021200000F01EFF94
:100490000221200000F018FF287800F007FE02215A
:1004A000200000F013FF287800F000FE012130004A
:1004B00000F00AFF287800F0F9FD3000012100F07B
:1004C00005FF2021200000F0FFFE287800F0EEFD5F
:1004D0002021200000F0FAFE4021200000F0F4FE70
:1004E000287800F0E3FD4021200000F0EFFE70BD11
:1004F000290000200014005070B5A024E405514EDE
:100500008021200000F0E0FE0121300000F0DCFE40
:100510004D4D287800F0CAFD8021200000F0D6FE65
:100520003000012100F0D2FE2021200000F0CCFE9E
:100530000221200000F0C8FE287800F0B7FD20213D
:10054000200000F0C3FE0221200000F0BFFE402189
:10055000200000F0B9FE287800F0A8FD402120001E
:1005600000F0B4FE287800F0A1FD4021200000F04A
:10057000ABFE0221200000F0A7FE287800F096FDD7
:100580000221200000F0A2FE0121300000F09CFEBC
:10059000287800F08BFD3000012100F097FE40210B
:1005A000200000F093FE8021200000F08DFE20212D
:1005B000200000F089FE287800F078FD80212000DE
:1005C00000F084FE2021200000F080FE287800F05A
:1005D0006DFD0221200000F077FE0121300000F0C7
:1005E00073FE287800F062FD8021200000F06CFE90
:1005F0002021200000F068FE287800F057FD4021FF
:10060000200000F061FE287800F050FD022120005B
:1006100000F05CFE0121300000F058FE287800F068
:1006200045FD8021200000F051FE2021200000F037
:100630004DFE287800F03AFD4021200000F046FEF3
:1006400070BDC046001400502B00002070B5A025DE
:10065000ED058021280000F037FE224C224E207844
:1006600000F024FD0221280000F02EFE207800F08A
:100670001DFD0121300000F027FE207800F016FD5E
:100680002021280000F020FE207800F00FFD4021FE
:10069000280000F019FE207800F008FD80212800D5
:1006A00000F014FE207800F001FD0221280000F087
:1006B0000DFE207800F0FAFC0121300000F006FE6B
:1006C000207800F0F3FC2021280000F0FFFD2078C6
:1006D00000F0ECFC4021280000F0F8FD207800F04C
:1006E000E5FC70BD2B0000200014005070B5A02464
:1006F000E4054021200000F0E7FD8021200000F00B
:10070000E3FD544D544E287800F0D0FC40212000E9
:1007100000F0DCFD0221200000F0D6FD287800F07A
:10072000C5FC8021200000F0D1FD0121300000F047
:10073000CBFD287800F0BAFC0221200000F0C6FDB5
:100740002021200000F0C0FD287800F0AFFC300030
:10075000012100F0BBFD4021200000F0B5FD28780C
:1007600000F0A4FC2021200000F0B0FD802120003A
:1007700000F0AAFD287800F099FC4021200000F04C
:10078000A5FD0221200000F09FFD287800F08EFCDE
:100790008021200000F09AFD0121300000F094FD3E
:1007A000287800F083FC0221200000F08FFD20213A
:1007B000200000F089FD287800F078FC300001214D
:1007C00000F084FD4021200000F07EFD287800F03C
:1007D0006DFC2021200000F079FD8021200000F038
:1007E00073FD287800F062FC4021200000F06EFDCF
:1007F0000221200000F068FD287800F057FC8021DD
:10080000200000F063FD0121300000F05DFD28783C
:1008100000F04CFC0221200000F058FD20212000B7
:1008200000F052FD287800F041FC3000012100F07A
:100830004DFD4021200000F047FD287800F036FCF7
:100840002021200000F042FD4021200000F03EFD6C
:1008500070BDC0462B0000200014005070B5A025CC
:10086000ED054021280000F02FFDFE4CFE4E2078C3
:1008700000F01CFC4021280000F028FD207800F04A
:1008800015FC8021280000F01FFD207800F00EFCF0
:100890008021280000F01AFD207800F007FC0221DA
:1008A000280000F011FD207800F000FC0221280053
:1008B00000F00CFD207800F0F9FB0121300000F081
:1008C00003FD207800F0F2FB0121300000F0FEFC77
:1008D000207800F0EBFB2021280000F0F5FC2078C8
:1008E00000F0E4FB2021280000F0F0FC207800F06C
:1008F000DDFB4021280000F0E7FC207800F0D6FB6B
:100900004021280000F0E2FC207800F0CFFB80219D
:10091000280000F0D9FC207800F0C8FB80212800D6
:1009200000F0D4FC207800F0C1FB0221280000F088
:10093000CBFC207800F0BAFB0221280000F0C6FCB6
:10094000207800F0B3FB0121300000F0BDFC2078DE
:1009500000F0ACFB0121300000F0B8FC207800F082
:10096000A5FB2021280000F0AFFC207800F09EFBC2
:100970002021280000F0AAFC207800F097FB4021FD
:10098000280000F0A1FC207800F090FB4021280016
:1009900000F09CFC207800F089FB8021280000F00A
:1009A00093FC207800F082FB8021280000F08EFC70
:1009B000207800F07BFB0221280000F085FC2078E5
:1009C00000F074FB0221280000F080FC207800F089
:1009D0006DFB0121300000F077FC207800F066FB11
:1009E0000121300000F072FC207800F05FFB202134
:1009F000280000F069FC207800F058FB2021280036
:100A000000F064FC207800F051FB4021280000F049
:100A10005BFC207800F04AFB4021280000F056FCE7
:100A2000207800F043FB8021280000F04DFC207866
:100A300000F03CFB8021280000F048FC207800F00A
:100A400035FB0221280000F03FFC207800F02EFB4F
:100A50000221280000F03AFC207800F027FB012159
:100A6000300000F031FC207800F020FB0121300044
:100A700000F02CFC207800F019FB2021280000F069
:100A800023FC207800F012FB2021280000F01EFC3F
:100A9000207800F00BFB4021280000F015FC2078A6
:100AA00000F004FB4021280000F010FC207800F04A
:100AB000FDFA8021280000F007FC207800F0F6FA0B
:100AC0008021280000F002FC207800F0EFFA0221DB
:100AD000280000F0F9FB207800F0E8FA0221280055
:100AE00000F0F4FB207800F0E1FA0121300000F082
:100AF000EBFB207800F0DAFA0121300000F0E6FB91
:100B0000207800F0D3FA2021280000F0DDFB2078C7
:100B100000F0CCFA2021280000F0D8FB207800F06B
:100B2000C5FA4021280000F0CFFB207800F0BEFA83
:100B30004021280000F0CAFB207800F0B7FA80219D
:100B4000280000F0C1FB207800F0B0FA80212800D6
:100B500000F0BCFB207800F0A9FA0221280000F088
:100B6000B3FB207800F0A2FA0221280000F0AEFBCF
:100B7000207800F09BFA0121300000F0A5FB2078DE
:100B800000F094FA0121300000F0A0FB207800F082
:100B90008DFA2021280000F097FB207800F086FADB
:100BA0002021280000F092FB207800F07FFA4021FD
:100BB000280000F089FB207800F078FA4021280016
:100BC00000F084FB207800F071FA8021280000F00A
:100BD0007BFB207800F06AFA8021280000F076FB89
:100BE000207800F063FA0221280000F06DFB2078E5
:100BF00000F05CFA0221280000F068FB207800F089
:100C000055FA0121300000F05FFB207800F04EFA29
:100C10000121300000F05AFB207800F047FA202133
:100C2000280000F051FB207800F040FA2021280035
:100C300000F04CFB207800F039FA4021280000F049
:100C400043FB207800F032FA4021280000F03EFB00
:100C5000207800F02BFA8021280000F035FB207866
:100C600004E0C0462A0000200014005000F01EFAE4
:100C70008021280000F02AFB207800F017FA0221DA
:100C8000280000F021FB207800F010FA0221280053
:100C900000F01CFB207800F009FA0121300000F080
:100CA00013FB207800F002FA0121300000F00EFB67
:100CB000207800F0FBF92021280000F005FB2078C7
:100CC00000F0F4F92021280000F000FB207800F06B
:100CD000EDF970BDF0B5DE4657464E464546E0B5E7
:100CE0000125954C95B000F0C3F9636BA0202B4310
:100CF0006363636B01262B40099302270222099B41
:100D000001230EA9C0050E920F931096119700F0C3
:100D1000DFF9636BA0202B436363636B40222B409E
:100D20000A930A9B01230EA9C0050E920F931096F9
:100D3000119700F0CDF9636BA0202B436363636BC5
:100D400080222B400B930B9B01230EA9C0050E9212
:100D50000F931096119700F0BBF9636BA0202B4303
:100D60006363636B20221D400C950C9B01230EA92D
:100D7000C0050E920F931096119700F0A9F9202349
:100D8000626B6E481A436263626B0EA913400D9347
:100D900001220D9B0123109611970E920F9300F0E4
:100DA00097F900F0EDF8664B664F9946664B4E4654
:100DB0000293664B664C9A46664B0393664B9B4682
:100DC000FFF790FAFFF754FBFFF796FBFFF73EFCA7
:100DD000FFF78CFCFFF742FD3B78002BF0D000239F
:100DE000984601330497994627004446494653489C
:100DF00000F06CFAA0200221C00500F067FAA020E4
:100E00002021C00500F062FAA0204021C00500F0BA
:100E10005DFAA0208021C00500F058FA308800F06B
:100E200045F90197059406970796019B02251C78C2
:100E30000F2323401F005646029924090A780132E5
:100E40000A70A0204021C00500F03EFA307800F082
:100E50002DF9A0204021C00500F038FA307800F0CC
:100E600025F9012D01D00125EBE73B0021005A4671
:100E7000039FB2461C00BB46160088464A463868A7
:100E8000715D1A4254D000F01FFA23002B41013546
:100E9000DBB20437052DF1D1330044462F485E46BE
:100EA00027009B4600F002F9043D5B46595D4B4626
:100EB0003068234239D000F007FA3C002C4101355C
:100EC000E4B20436052DF0D1244800F0EFF80121FA
:100ED0001A4800F0FBF9A0200221C00500F0F6F945
:100EE000A0202021C00500F0F1F9A0204021C0057C
:100EF00000F0ECF9A0208021C00500F0E7F9019B8B
:100F0000174A013301939A428FD1079E059C30887E
:100F1000069F00F0CBF8049B01341B78E4B2A34297
:100F200000D963E73C00049F4AE700F0CFF9C4E72B
:100F300000F0CCF9A9E7C0460010024000140050B0
:100F40002E00002028000020580000202C00002047
:100F500004000020140000200B000020EE0200001E
:100F60000A0000207047C046FEE7C0467047C046F2
:100F70007047C04610B500F087F810BD7047C046F6
:100F80000023802130B5244C8BB00193226CC90121
:100F90000A432264226C21480A400192019A204AA5
:100FA00001250260E12283605202C3600361836114
:100FB0000C334260436100F0F1F9636B04222B4370
:100FC0006363636B04A92B400293029B636B2B4307
:100FD0006363636BA0242B400393039B022304925F
:100FE000059301220323E405200006920793089548
:100FF00000F06EF80823200004A90493089500F07F
:1010000067F8012200211B2000F062F91B2000F08C
:1010100089F90BB030BDC046001002405C000020D2
:10102000003801400F4B70B519680400002901D148
:10103000012070BDFA208000FFF742F80A4D010040
:101040002868FFF73DF800F079F90028F0D1032C6B
:10105000EED801380022210000F03AF9034B0020BD
:101060001C60E6E73400002000000020380000206B
:1010700010B50320FFF7D6FF041E02D00124200084
:1010800010BDFFF77BFFFAE7034A044913680968BC
:101090005B1813607047C046A00000203400002099
:1010A000014B18687047C046A000002070B50400CE
:1010B000FFF7F6FF0500631C02D0044B1B68E41821
:1010C000FFF7EEFF401BA042FAD370BD34000020B2
:1010D000F0B54546DE4657464E46E0B50D6800235E
:1010E00083B0002D00D189E0754F009101242E00BE
:1010F0009C402640019625427BD0009A10215268E0
:1011000016008E43B146022E00D17EE001688B4668
:1011100059008C4603216646B1408A46C94356466B
:1011200088465946B1438B46032166461140B1407B
:101130008A465946564631430160012149428A4652
:10114000D1444946012900D895E04646C468009933
:1011500026408C6861468C40802134434905C46038
:101160000A4246D056499C088C46A4006444216E2D
:101170008C4603211940C90088460F214646B140DC
:10118000894661464E46B1438C46A021C905884236
:101190000CD04C4989460121484500D002214646E1
:1011A000B140894661464E4631438C4661462166D0
:1011B00080217C580199C9438C46D10300D57CE03D
:1011C00061460C4080217C5084243C59910300D519
:1011D00070E061460C4084217C503C68D10266D4AA
:1011E00061460C403C607C6892025DD462461440CB
:1011F0007C602A000133DA4000D077E703B0F0BC0E
:10120000BB46B246A946A046F0BDD90889008C4627
:1012100084446146096A8A46072119408900884644
:101220000F214646B140894651464E46B143464697
:101230008A4600990969B14088465146464631437D
:101240008846614646460E6201688A4659008C46C9
:1012500003216646B1408946C9434E4688465146F9
:10126000B1438A46032166461140B1408946514642
:101270004E463143016081680E0041460E400099A0
:10128000B246C9680E0061468E40B1465646494690
:101290000E43866041680E000121A64314090C40EC
:1012A0009C403443446050E7019A1443A0E70199FD
:1012B0000C4397E701990C438DE701990C4381E7B3
:1012C000001802400004005081617047816270473D
:1012D000FF22032310B514000340DB009C4089016A
:1012E0000A40E4439A4000280BDB0C4BC0219C468B
:1012F00080088000604489004358234013434350D2
:1013000010BD0F23064903408C46083B9B089B00F9
:101310006344D9690C401443DC61F1E700E100E06B
:1013200000ED00E0002805DB1F220123024093406E
:10133000014A13607047C04600E100E08022431E6E
:101340005204012093420ED2C021074A074853603D
:10135000036A09061B021B0A0B43036200230020D9
:10136000936007331360704710E000E000ED00E089
:10137000064B07499B68074A5B045B0F9B005B5861
:101380001F2110680B40D8407047C0460010024033
:1013900068150008000000207047C046F8B5041E1C
:1013A00000D19DE03D23C35CDAB2002B00D18BE07D
:1013B0003D232422E25423684A49DA6820690A401E
:1013C000DA601A690A40E1680A431A61A268D968BA
:1013D000024360690243444801400A43DA605A69A3
:1013E0004248E16902400A435A615A694048024052
:1013F000A06902435A6180231B01994240D0FFF744
:10140000B7FF8300616818188300C0188900FEF7D1
:1014100057FE64210700FEF7D9FE0801323064212F
:10142000FEF74EFE642106003800FEF749FE2568EF
:1014300000013618AE60236A002B0BD05B0609D57D
:101440006B692C49626A0B4013436B6180235B011B
:101450009A423ED02B69254A0020134008222B6176
:101460006B6993436B618023EA689B011343EB60D4
:1014700000233D2223642033A3540132A354F8BD3A
:10148000FFF776FF8300616818188300C0184900D1
:10149000FEF716FE64210700FEF798FEC800323002
:1014A0006421FEF70DFE642106003800FEF708FEF9
:1014B000072300013340C018F82376005B0025683D
:1014C0001E408619AE60B6E73C33C254FFF764FF96
:1014D0006EE76B69084A1340A26A13436B61B9E770
:1014E0000120CCE7FFDFFFFFF3E9FFFFFFF7FFFF7E
:1014F000FFFCFFFFFFEFFFFFFF9FFFFF0D4885464B
:101500000D480E490E4A002302E0D458C45004335B
:10151000C4188C42F9D30B4A0B4C002301E0136032
:101520000432A242FBD3FEF7C7FEFEF7A1FEFFF78F
:10153000D1FBFEE7000C0020000000203C00002052
:10154000901500083C000020A4000020FEE70000E9
:10155000F8B5C046F8BC08BC9E467047F8B5C04612
:08156000F8BC08BC9E46704770
:101568000000000000000000000000000000000073
:101578000100000002000000030000000400000059
:041588004D02000808
:04158C002102000830
:1015900000127A004C4154494E4F00008002012055
:1015A00040000000000000500000005000140050F7
:1015B000000000500000005002F432FAC80064003D
:0C15C000B80B0000010000000400000057
:04000005080014FDDE
:00000001FF
